:020000040800F2
:1000000058070020010100085F100008750F000864
:100010005D100008390200085B12000800000000B3
:100020000000000000000000000000006310000855
:100030003B02000800000000611000086510000885
:100040001B0100081B0100081B0100081B01000820
:100050001B0100081B0100081B0100081B01000810
:100060001B0100081B0100081B0100081B01000800
:100070001B0100081B0100081B0100081B010008F0
:100080001B0100081B0100081B0100081B010008E0
:100090001B0100081B0100081B0100081B010008D0
:1000A0001B0100081B0100081B0100081B010008C0
:1000B0001B0100081B010008000000001B010008D4
:1000C0001B01000800000000000000001B010008E8
:1000D000000000001B0100081B01000800000000D8
:1000E0001B0100081B0100081B010008DFF80CD0F1
:1000F00000F090F8004800474D160008580700200F
:100100000648804706480047FEE7FEE7FEE7FEE7B1
:10011000FEE7FEE7FEE7FEE7FEE7FEE7C7100008A2
:10012000ED000008202A04DB203A21FA02F0002129
:10013000704721FA02F3D040C2F1200291400843F7
:1001400019467047D2B201E000F8012B491EFBD2DC
:1001500070470022F6E710B513460A4604461946D2
:10016000FFF7F0FF204610BD421C10F8011B0029CC
:10017000FBD1801A704710B5002200E0521C835C4E
:100180008C5CA34201D1002BF8D1D8B2E1B2401A65
:1001900010BD034611F8012B00F8012B002AF9D1FC
:1001A0001846704770B50F4D00B92868002412E05A
:1001B0000A4602E09E4203D0521C1378002BF9D16C
:1001C000DAB2224305D02BB124B1002100F8011B83
:1001D00004E00446401C0678002EE9D12860204641
:1001E00070BD00002800002030B50B4601460020FD
:1001F0002022012409E021FA02F59D4205D303FAE9
:1002000002F5491B04FA02F52844151EA2F1010269
:10021000F1DC30BD064C074D06E0E06840F001031C
:1002200094E8070098471034AC42F6D3FFF762FF1A
:10023000401A0008601A0008FEE7704772B6FEE731
:1002400006490020C8610648016941F004010161C6
:10025000016941F040010161704700007800002011
:1002600000200240064A0021D16106490A6942F095
:1002700002020A614861086940F040000861704765
:100280007800002000200240044B0022DA61044A7A
:10029000136943F001031361018070477800002067
:1002A0000020024014480022C168CB06134904D53F
:1002B000CA6942F00202CA611022C3685B0705D511
:1002C000CB6943F00103CB6142F00402C369DB0751
:1002D00007D0CB6943F00403CB61C16921F0010170
:1002E000C161A2F58071013901D0C2607047C16956
:1002F00021F00101C1617047002002407800002018
:1003000070B5054600F014FA0646114C09E0681C69
:1003100007D025B100F00CFA801BA84201D90320B8
:1003200070BDE068C007F2D1E068800601D52020EA
:10033000E060E068C00605D4E069C00702D1E0686B
:10034000400703D5FFF7AEFF012070BD002070BD50
:100350000020024010B586B00024009400F0F4F8AC
:1003600009480390182004900194694601A800F000
:100370004DF820B100F09EF8009806B010BD00F0D6
:1003800099F80020F9E70000002000082DE9F04767
:1003900015460E4681464FF0000800F0D5F80024BF
:1003A000104F19E0601CA84202D23019028802E006
:1003B000305D40F47F4209EB04010023012000F08E
:1003C00083F828B100F076F84FF0FF30BDE8F087F1
:1003D000F868C007FCD1A41CAC42E3D300F06AF873
:1003E0004046F3E70020024070B5044600F0A0F953
:1003F0000546601C02D004480078044400F098F9D7
:10040000401BA042FAD370BD080000202DE9F04740
:10041000054626480F460126017E01290FD00121FD
:10042000814601762868DFF888804CF25034022833
:1004300008D0A2462046FFF763FFA8B131E00220B2
:10044000BDE8F0872046FFF75BFF08BB0120FFF700
:10045000F7FE2046FFF754FFD8F81010064621F0AB
:100460000401C8F810101CE04FF0FF303860AC6891
:1004700011E02046FFF7F6FE5046FFF741FFD8F89F
:100480001010060021F00201C8F8101001D03C60E5
:1004900007E004F58064D5E9020100EB8120A04269
:1004A000E7D8002189F818103046C9E77800002005
:1004B000002002400348016941F0800101610020F1
:1004C00070470000002002402DE9F05F07461C48FD
:1004D00088460024017E15461E46012909D00121C7
:1004E000814601764CF2503A5046FFF709FF18B1A9
:1004F00022E00220BDE8F09F012F02D0022F00D0A1
:100500000427D346DFF83CA0220128463146FFF7F6
:1005100009FE81B208EB4400FFF7B6FE5846FFF72C
:10052000EFFEDAF8102022F00102CAF8102018B904
:10053000641CE4B2BC42E7D3002289F81820D9E752
:100540007800002000200240064900200A691206B7
:1005500007D5054A4A60054A4A600969090600D577
:10056000012070470020024023016745AB89EFCD91
:100570002DE9F84FDFF89C910024A9F1040B2346E4
:100580000F2709F1040AABF1040EBBE00125A540D9
:100590002A40AA4276D1DFF880C14E68A6EB0C084B
:1005A00066452BD00DDC032E34D005DC36B3012E8E
:1005B00019D0022E2FD11BE0112E16D0122E2AD1C7
:1005C00019E0B8F5881F19D006DCB8F5803F15D0C2
:1005D000B8F5801F1FD111E0B8F5001F0ED0B8F597
:1005E000041F18D10AE0CB6815E0CB681B1D12E090
:1005F000CB6808330FE0CB680C330CE08B682BB171
:10060000012B4FF0080303D0456104E0042302E00E
:10061000056100E00023FF2A01D8064601E000F151
:1006200004064FEA840501D9A5F12005D6F800801B
:1006300007FA05FC28EA0C0803FA05F548EA05085C
:10064000C6F800804D68ED005BD5344DAE6946F0CC
:100650000106AE61AD6924F0030605F001050095C1
:100660002F4D06EB050CDCF80850A607360F07FAED
:1006700006F825EA0805DFF8AC80404503D14FF0C5
:10068000000810E03DE0DFF8A080404502D14FF0C7
:10069000010808E0DFF89480404502D14FF00208DD
:1006A00001E04FF0030808FA06F848EA0508CCF81C
:1006B00008804D68D9F80060ED024D4601D516431B
:1006C00000E096432E604D68DAF80060AD025546B2
:1006D00001D5164300E096432E604D68DBF80060BC
:1006E000AD035D4601D5164300E096432E604D688C
:1006F000DEF80060ED03754601D5164300E0964331
:100700002E60641C0A6832FA04F57FF43FAFBDE83E
:10071000F88F000008040140000011100010024092
:100720000000014000080140000C014000100140A1
:100730000148806870470000080000200248816876
:10074000027811448160704708000020074810B506
:10075000016841F010010160032000F067F80F20EC
:1007600000F006F800F024F8002010BD0020024040
:1007700070B50D4D04464FF47A712878B1FBF0F056
:100780000A490968B1FBF0F000F0CEFA48B9102C24
:1007900007D200222146501E00F028F800206C608D
:1007A00070BD012070BD0000080000201400002072
:1007B0000C4808B5816941F001018161816901F04E
:1007C00001010091C16941F08051C161C06900F02F
:1007D000805000900448416821F0E06141F00071D0
:1007E000416008BD0010024000000140F0B40E4B13
:1007F0001B680C46C3F30223C3F10705042D00D97F
:100800000425191D072901D2002300E0DB1E012663
:1008100006FA05F1491E214099409E40761E164079
:100820003143F0BC00F0A2BD0CED00E0064900F041
:10083000070208684FF6FF03184040EA0220034A07
:1008400010430860704700000CED00E00000FA055E
:100850002DE9F0470F46050061D0434E306800F0A7
:100860000700B84209D2306820F0070038433060F2
:10087000306800F00700B84251D128683B4C81072E
:1008800012D5400703D5606840F4E06060602878C6
:10089000000703D5606840F4605060606068A96834
:1008A00020F0F000084360602878C00728D068680E
:1008B000012810D02168022810D0890700292EDADB
:1008C000616821F0030101436160FFF731FF804659
:1008D00041F288390DE021688903EFE78901EDE7EE
:1008E000FFF726FFA0EB0801494502D90320BDE828
:1008F000F0876068696800F00C00B0EB810FEFD101
:10090000306800F00700B8420BD9306820F00700CB
:1009100038433060306800F00700B84201D0012051
:10092000E5E72878400705D56068E96820F4E060CD
:10093000084360602878000706D56068296920F4BC
:10094000605040EAC100606000F038F86168084A11
:10095000C1F30311515CC8400649086006480068AD
:10096000FFF706FF0020C2E700200240001002400F
:10097000021A0008140000200C0000200448054959
:1009800000684968044AC1F30221515CC8407047BD
:100990001400002000100240121A00080448054903
:1009A00000684968044AC1F3C221515CC8407047DD
:1009B0001400002000100240121A00080E4A51686C
:1009C0000E4801F00C03042B11D0082B0FD10C485A
:1009D000C1F38343C903C05C0AD55168084AC1F317
:1009E0004041921E515C054A5043B0FBF1F0704704
:1009F00004494843704700000010024000127A008A
:100A0000F219000800093D002DE9F84F040070D0EC
:100A10002078C04DC00749D06868C0F38100012824
:100A200007D06868C0F38100022809D16868C00354
:100A300006D52868800339D560680028E7D035E0FE
:100A40006068B0F5803F0BD010B1B0F5A02F11D089
:100A5000286820F480302860286820F4802002E094
:100A6000286840F480302860606890B1FFF760FE2D
:100A700006460AE0286840F480202860F0E700BFBE
:100A8000FFF756FE801B642873D828688003F7D5CB
:100A90000CE0FFF74DFE064605E000BFFFF748FEFD
:100AA000801B6428F0D828688003F7D420789A4EF9
:100AB00080074FF001094FF0000839D5686810F041
:100AC0000C0F07D06868C0F38100022809D168685C
:100AD000C00306D42868800714D52069012808D1EE
:100AE00010E02069B0B1C6F80090FFF721FE07467C
:100AF00005E00AE1FFF71CFEC01B0228C4D82868E5
:100B00008007F7D52868616920F0F80040EAC10045
:100B100028600DE0C6F80080FFF70AFE074604E0F3
:100B2000FFF706FEC01B022823D828688007F7D4E9
:100B3000207800072CD57948A169D9B1C0F8009078
:100B4000FFF7F6FD074604E0FFF7F2FDC01B0228A1
:100B50000FD8686A8007F7D571484FF4FA510068DA
:100B6000B0FBF1F0009000BF0098411E0091FAD256
:100B70000EE080E0C0F80080FFF7DAFD074604E0F1
:100B8000FFF7D6FDC01B022875D8686A8007F7D426
:100B90002078400760D5E8690027C00008D4E869DC
:100BA00040F08050E861E869012700F08050009033
:100BB0005C480168C90513D40168834641F480711B
:100BC0000160FFF7B5FD824606E000BFFFF7B0FD0C
:100BD000A0EB0A0064284ED8DBF80000C005F5D56C
:100BE000E06801280AD008B1052813D0286A20F04F
:100BF00001002862286A20F0040002E0286A40F020
:100C000001002862E06841F2883B98B1FFF790FD4F
:100C100082460BE0286A40F004002862EEE700BF3D
:100C2000FFF786FDA0EB0A0159455AD8286A8007CC
:100C3000F6D50CE0FFF77CFD824605E0FFF778FD76
:100C4000A0EB0A0159454CD8286A8007F6D41FB199
:100C5000E86920F08050E861E06988B36968C1F311
:100C60008101022944D00228C6F8608004D0FFF731
:100C70005FFD044638E034E0FFF75AFD074604E024
:100C8000FFF756FDC01B02282BD828688001F7D437
:100C9000206AB0F5803F05D16868A16820F4003073
:100CA00008436860D4E908010843696821F47411B5
:100CB00008436860C6F86090FFF73AFD044606E016
:100CC00025E000BFFFF734FD001B022809D8286883
:100CD0008001F7D51BE000BFFFF72AFD001B0228AB
:100CE00002D90320BDE8F88F28688001F4D40EE013
:100CF0000128F7D06868226A00F48031914204D15B
:100D0000616A00F47010884201D00120EAE70020F7
:100D1000E8E7000000100240000042428004424226
:100D2000140000200070004010B5401EB0F1807F1C
:100D300001D3012010BD4FF0E02460610F21601746
:100D400000F014FB0020A06107202061002010BDEE
:100D500070B5040004D094F84100002510B106E0FD
:100D6000012070BD84F84050204600F023F8242074
:100D700084F841002068C16821F40051C160204618
:100D800000F0D6F92068016921F4904101612068E2
:100D9000416921F02A0141612068C16841F4005194
:100DA000C1606564202084F8410084F842006563D6
:100DB000002070BD30B585B00024009401940294E9
:100DC000039400681449884224D11448816941F48D
:100DD00080418161816901F480410491816941F020
:100DE0000401816180690E4D00F0040004904FF40D
:100DF000007000900220019003200390694628466D
:100E0000FFF7B6FB2815CDE9000469462846029491
:100E1000FFF7AEFB05B030BD0038014000100240C6
:100E2000000801402DE9F84F044690F842009A4628
:100E300016460D46202802D00220BDE8F88FB5B135
:100E4000AEB100206064222184F842102063FFF7D5
:100E50006FFCA6858146E685A0684FF48058202760
:100E6000404501D1206920B12E46002529E001200E
:100E7000E3E7002625E04B46002220212046CDF85E
:100E800000A000F0B1F918B184F842700320D4E753
:100E900026B1A06840451AD038B108E02068406803
:100EA000C0F3080025F8020B08E0206978B120683B
:100EB000406800F07F0000BF06F8010BE08D401E87
:100EC000E085E08D0028D6D184F84270B5E720682F
:100ED0004068F1E72DE9F843044690F84100984650
:100EE00016460D46202802D00220BDE8F88385B1C1
:100EF0007EB100206064212084F84100FFF718FCD7
:100F0000A6848146E684A0682027B0F5805F02D0E1
:100F100003E00120E9E7206910B12E4600250EE02C
:100F200000260CE08021204600F05EF9A8B9C6B189
:100F300016F8010B21684860E08C401EE084E08CCC
:100F40004B464FF00002CDF800800028EAD14FF068
:100F50004001204600F048F940B184F84170032078
:100F6000C3E735F8020BC0F30800E3E784F84170EB
:100F70000020BAE7FEE7000010B50D4C20680D49CF
:100F80000840B0F1005F05D00BA000F0DFF94FF092
:100F9000FF3010BD0EA000F0D9F96068114948601B
:100FA0000860216881F308888047002010BD000098
:100FB000002000080000FE2F0D0A2052756E2074DC
:100FC0006F20617070206572726F722E0D0A0000C2
:100FD0000D0A2052756E20746F206170702E0D0AFC
:100FE00000000000000000200D4808B5816941F0B4
:100FF00010018161816901F010010091816941F066
:1010000020018161816901F020010091816941F035
:1010100004018161806900F00400009008BD0000B7
:10102000001002400C4810B50A4901604FF4E1314C
:101030004160002181600C22C160C0E9041281611D
:10104000C161FFF785FE002803D0BDE81040FFF71F
:10105000F5B810BD0038014030000020FEE7FEE783
:1010600070477047FFF76ABB30B58FB028216846DC
:10107000FFF76FF814210AA8FFF76BF801210804A5
:10108000CDE900100024029402250491CDE9075017
:101090004FF4E01009906846FFF7B6FC08B172B64D
:1010A000FEE70F20CDE90A054FF48060CDE90C4042
:1010B00002210AA80E94FFF7CBFB002801D072B6DC
:1010C000FEE70FB030BD704701680C3151E8002FCA
:1010D00022F4907241E80023002BF5D1016814310D
:1010E00051E8002F22F0010241E80023002BF5D146
:1010F000016B012909D101680C3151E8002F22F060
:10110000100241E80023002BF5D1202180F8421085
:1011100000210163704708B5006800E0416801687C
:10112000C9438906FAD501684068009008BD0000EF
:1011300070B5044600680169E26821F4405111432A
:1011400001612169A0680843616908432168CA6890
:1011500041F20C639A430243CA6020684169A26964
:1011600021F44071114341611E492068884202D137
:10117000FFF714FC01E0FFF701FC00EBC00101EBFD
:101180000012606864218000B2FBF0F3B3FBF1F35E
:101190006FF018067343B2FBF0F5B2FBF0F605EB07
:1011A0008305322303EB0515B5FBF1F5B6FBF1F62C
:1011B00005F0F00505EB0615B2FBF0F6B2FBF0F01A
:1011C000B0FBF1F06FF01802504306EB800003EB28
:1011D0000010B0FBF1F0216800F00F002844886097
:1011E00070BD0000003801402DE9F84398461746CD
:1011F0000D460446089E24E0701C22D0FFF798FAA2
:10120000A0EB0800B0421AD8CEB12068C1684907E7
:1012100017D5802D15D0402D13D00168C94309077B
:101220000FD401680025406800902046FFF74CFF6E
:101230000820606484F840500120BDE8F883032052
:10124000FBE72068006835EA000004D00020B842BF
:10125000D2D00020F1E70120F9E7FEE710B539B15F
:101260000B46014601220848FFF7DCFD38B108E0D3
:10127000054909680A68920603D54968017001208A
:1012800010BD002010BD00003000002001B50A2371
:10129000012269460148FFF71DFE08BD300000200D
:1012A0002DE9F0470024A4B0DFF898A04326254696
:1012B0004FF47A78E94600E016B14320FFF7E6FFE5
:1012C0004746414623A8FFF7C9FF012809D19DF8E9
:1012D0008C0001280ED002280FD0042813D0182823
:1012E00014D06D1C402DE7DB06B100260125B84661
:1012F000671D19E08024012002E04FF48064022081
:101300008DF80000F0E70620FFF7C0FF0E48FFF75A
:1013100002FF24B00020BDE8F08700BF09EB050004
:101320004146FFF79BFF6D1CBD42F7DB224609F1EA
:1013300003015046FFF72AF8A2440620FFF7A6FF54
:101340000025BDE700200008300000200FB4054B49
:1013500010B503A9044A029800F028F810BC5DF803
:1013600014FB0000DD1500082C0000200907090E01
:10137000002804DB00F1E02080F80014704700F042
:101380000F0000F1E02080F8141D704702E008C84B
:10139000121F08C1002AFAD170477047002001E0EF
:1013A00001C1121F002AFBD1704700002DE9FF4F39
:1013B0008BB09A460F460546002606E025280BD03E
:1013C00052460D9990476D1C761C28780028F5D15F
:1013D0000FB03046BDE8F08F0024A04601226049DE
:1013E00000E0044315F8013F203B02FA03F00842F5
:1013F000F7D128782E2817D115F8010F44F00404EE
:101400002A280ED06FF02F022878A0F13001092988
:101410000AD808EB880102EB410100EB01086D1CC2
:10142000F2E757F8048B6D1C287869283ED006DC5B
:101430000028CDD063280BD0642804D136E073286F
:1014400010D075284BD052460D999047761C85E0F8
:1014500017F8040B8DF8000000208DF80100E94614
:10146000012003E057F8049B4FF0FF3061074FF075
:10147000000401D40AE0641C44450DDA8442FADB1E
:1014800019F804100029F6D106E0641C8442FCDB44
:1014900019F804100029F8D1264404E019F8010BCA
:1014A00052460D999047641EF8D257E001CF4FF095
:1014B0000A0B002802DA40422D2102E0210504D562
:1014C0002B218DF82410012103E0E10705D0202114
:1014D000F7E70DF1200908910CE00021F9E701CFB1
:1014E0004FF00A0BF9E75946FEF77EFE01F1300294
:1014F00009F8012D0028F6D1ADEB090000F1200B11
:10150000600701D44FF00108D84502DDA8EB0B00BD
:1015100000E000208046002406E009A85246005D55
:101520000D999047641C761C08988442F5DB04E012
:10153000302052460D999047761CB8F10001A8F171
:101540000108F5DC05E019F8010B52460D999047AA
:10155000761CBBF10001ABF1010BF4DC6D1C34E730
:1015600009280100044909680A68D2439206FBD49D
:1015700049680170002070473000002001B50A233F
:10158000012269460148FFF7A5FC08BD3000002094
:1015900010B5044602E0641CFFF7F0FF2078002835
:1015A000F9D110BD10B505A0FFF7D0FE074882683D
:1015B0000168BDE8104006A0FFF7C8BE7269676801
:1015C0007420636D643A0D0A000000001C1A0008C4
:1015D00020202573203A2025730D0A0013B54FF003
:1015E000FF33012269460248FFF774FC00981CBDD6
:1015F0003000002070B50646FEF7B6FD0025124CFF
:1016000003E00820FFF7BAFF6D1CE0688542F8DBB5
:10161000002503E02020FFF7B1FF6D1CA068854284
:10162000F8DB002503E00820FFF7A8FF6D1CA06889
:101630008542F8DB3046FFF7ABFF3046FEF794FDFE
:10164000E060A06070BD00001800002008B5FFF742
:101650007DF8FFF709FDFFF7C7FCFFF7E3FC1AA0D1
:10166000FFF774FE23A0FFF771FE2DA0FFF76EFEBB
:1016700015A0FFF76BFE05244FF47A7569462B46DB
:1016800001223248FFF7CEFB9DF800000D2811D053
:101690000A280FD0641EE4B221462DA0FFF756FEA3
:1016A000002CEBD100F06CF86420FEF79DFEFFF7F4
:1016B00063FCFEE7FEF74EFEFFF7F2FD0028DDD1EA
:1016C00027A0FFF743FEEDE72A2A2A2A2A2A2A2AF8
:1016D0002A2A2A2A2A2A2A2A2A2A2A2A2A2A2A2A6A
:1016E0002A2A2A2A2A2A2A2A2A2A2A2A2A2A0D0A97
:1016F0000000000020202020202020202020426FF9
:101700006F744C6F6164657242617369632020205D
:10171000202020202020202020200D0A0000000072
:1017200020202020202020202020202020202020B9
:101730005631202020202020202020202020202062
:101740002020202020200D0A000000003000002072
:10175000626F6F745F636F756E743A25640D0A0073
:10176000446F776E6C6F6164204F4B2C206A756DEF
:101770007020746F204170702E2E2E0D0A00000014
:1017800086B075A0FFF704FF764F774D4FF0FF3915
:101790004FF0000807F5207603A8FFF7E3FE0028C6
:1017A000FAD19DF80C201B2A0DD00D2A58D00A2AF8
:1017B00056D0082A7ED0AC683F2CEDDAE968A14209
:1017C00079DA2046ADE001A8FFF7CCFE0028E3D18E
:1017D0006846FFF7C7FE0028DED19DF804005B28AD
:1017E000DAD19DF8000041280FD0422818D04328B4
:1017F0002CD04428D0D1E8680028CDDD0820FFF7A0
:10180000BDFEE868401EE860C6E728680028C3DD22
:101810006968421E914201DA491C6960401A06E07B
:10182000686800280ADD401E68602968081A07EB0E
:1018300080114E484039FEF7ACFC03E0C5F8049037
:1018400086F800804948FFF7D5FEA5E7D5E90210E4
:101850008842A1DA305CFFF791FEE868401CD2E7CD
:1018600043A0FFF795FEA868002806F800801CDD5D
:1018700029680A2905DA07EB8110491C29603B49D0
:101880000CE0012407EB8411A1F14000FEF781FC7C
:10189000641C0A2CF6DB3549A1F14000FEF779FC07
:1018A0003248C5F8049000F065F8C5F80C80C5F81A
:1018B000088001E006E038E086F8008026A0FFF707
:1018C00067FE69E7EC68002C9EDDAB68601E591E60
:1018D00003E0321852783254401C8842F9DB5B1E18
:1018E000641EC5E9023406F803800820FFF746FEAF
:1018F000E8683044FFF74CFE2020FFF73FFE1B480E
:10190000FEF732FCE968441A641C02E00820FFF785
:1019100035FE641E99D3F9E7331813F8013C3354AC
:10192000401E8842F8DC725400E03255491C641CA9
:10193000C5E90241701806F80480401EFFF728FE32
:101940000A48FEF711FCE968441A02E00820FFF794
:1019500015FE641EB5D3F9E740494D5836554C4C39
:101960003A00000098000020180000201803002012
:101970000D0A000030B589B0054620216846FEF703
:10198000E8FB20216846FEF7E4FB002411A128466D
:10199000FEF708FC6D4606E045F824000DA1002086
:1019A000641CFEF7FFFB08B1082CF5DB002C09D006
:1019B000094D00982968FEF7DEFB28B107A00099C1
:1019C000FFF7C4FC09B030BD6A68694620469047FD
:1019D000F8E70000200000001C1A0008756E6B6E0E
:1019E0006F7720636D643A2025730D0A00000000B4
:1019F000010202030405060708090A0B0C0D0E0F6D
:101A0000101000000000000000000102030406079F
:101A1000080900000000010203040000381A000851
:101A2000A5150008281A000873686F7720616C6C90
:101A300020636D640000000068656C7000000000A9
:101A4000601A000800000020300000008C1300081D
:101A5000901A000830000020280700009C1300089E
:101A60000000000000000000010000001000000065
:101A70000000000000127A0000000000FFFFFFFFDE
:101A80000000000000000000000000000000000056
:04000005080000ED02
:00000001FF
