:020000040800F2
:100000008804002001010008DF0F0008F50E000839
:10001000DD0F0008B9010008C3110008000000004E
:10002000000000000000000000000000E30F0008D6
:10003000BB01000800000000E10F0008E50F000808
:100040001B0100081B0100081B0100081B01000820
:100050001B0100081B0100081B0100081B01000810
:100060001B0100081B0100081B0100081B01000800
:100070001B0100081B0100081B0100081B010008F0
:100080001B0100081B0100081B0100081B010008E0
:100090001B0100081B0100081B0100081B010008D0
:1000A0001B0100081B0100081B0100081B010008C0
:1000B0001B0100081B010008000000001B010008D4
:1000C0001B01000800000000000000001B010008E8
:1000D000000000001B0100081B01000800000000D8
:1000E0001B0100081B0100081B010008DFF80CD0F1
:1000F00000F050F800480047711400088804002000
:100100000648804706480047FEE7FEE7FEE7FEE7B1
:10011000FEE7FEE7FEE7FEE7FEE7FEE74710000822
:10012000ED000008202A04DB203A21FA02F0002129
:10013000704721FA02F3D040C2F1200291400843F7
:1001400019467047D2B201E000F8012B491EFBD2DC
:1001500070470022F6E710B513460A4604461946D2
:10016000FFF7F0FF204610BD30B50B4601460020DA
:100170002022012409E021FA02F59D4205D303FA69
:1001800002F5491B04FA02F52844151EA2F10102EA
:10019000F1DC30BD064C074D06E0E06840F001039D
:1001A00094E8070098471034AC42F6D3FFF7A2FF5B
:1001B000CC150008EC150008FEE7704772B6FEE7A4
:1001C00006490020C8610648016941F00401016147
:1001D000016941F0400101617047000068000020A2
:1001E00000200240064A0021D16106490A6942F016
:1001F00002020A614861086940F0400008617047E6
:100200006800002000200240044B0022DA61044A0A
:10021000136943F0010313610180704768000020F7
:100220000020024014480022C168CB06134904D5BF
:10023000CA6942F00202CA611022C3685B0705D591
:10024000CB6943F00103CB6142F00402C369DB07D1
:1002500007D0CB6943F00403CB61C16921F00101F0
:10026000C161A2F58071013901D0C2607047C169D6
:1002700021F00101C16170470020024068000020A8
:1002800070B5054600F014FA0646114C09E0681CEA
:1002900007D025B100F00CFA801BA84201D9032039
:1002A00070BDE068C007F2D1E068800601D520206B
:1002B000E060E068C00605D4E069C00702D1E068EC
:1002C000400703D5FFF7AEFF012070BD002070BDD1
:1002D0000020024010B586B00024009400F0F4F82D
:1002E00009480390182004900194694601A800F081
:1002F0004DF820B100F09EF8009806B010BD00F057
:1003000099F80020F9E70000002000082DE9F047E7
:1003100015460E4681464FF0000800F0D5F800243F
:10032000104F19E0601CA84202D23019028802E086
:10033000305D40F47F4209EB04010023012000F00E
:1003400083F828B100F076F84FF0FF30BDE8F08771
:10035000F868C007FCD1A41CAC42E3D300F06AF8F3
:100360004046F3E70020024070B5044600F0A0F9D3
:100370000546601C02D004480078044400F098F957
:10038000401BA042FAD370BD080000202DE9F047C1
:10039000054626480F460126017E01290FD001217E
:1003A000814601762868DFF888804CF250340228B4
:1003B00008D0A2462046FFF763FFA8B131E0022033
:1003C000BDE8F0872046FFF75BFF08BB0120FFF781
:1003D000F7FE2046FFF754FFD8F81010064621F02C
:1003E0000401C8F810101CE04FF0FF303860AC6812
:1003F00011E02046FFF7F6FE5046FFF741FFD8F820
:100400001010060021F00201C8F8101001D03C6065
:1004100007E004F58064D5E9020100EB8120A042E9
:10042000E7D8002189F818103046C9E76800002095
:10043000002002400348016941F080010161002071
:1004400070470000002002402DE9F05F07461C487D
:1004500088460024017E15461E46012909D0012147
:10046000814601764CF2503A5046FFF709FF18B129
:1004700022E00220BDE8F09F012F02D0022F00D021
:100480000427D346DFF83CA0220128463146FFF777
:1004900049FE81B208EB4400FFF7B6FE5846FFF76D
:1004A000EFFEDAF8102022F00102CAF8102018B985
:1004B000641CE4B2BC42E7D3002289F81820D9E7D3
:1004C0006800002000200240064900200A69120648
:1004D00007D5054A4A60054A4A600969090600D5F8
:1004E000012070470020024023016745AB89EFCD12
:1004F0002DE9F84FDFF89C910024A9F1040B234665
:100500000F2709F1040AABF1040EBBE00125A54059
:100510002A40AA4276D1DFF880C14E68A6EB0C08CB
:1005200066452BD00DDC032E34D005DC36B3012E0E
:1005300019D0022E2FD11BE0112E16D0122E2AD147
:1005400019E0B8F5881F19D006DCB8F5803F15D042
:10055000B8F5801F1FD111E0B8F5001F0ED0B8F517
:10056000041F18D10AE0CB6815E0CB681B1D12E010
:10057000CB6808330FE0CB680C330CE08B682BB1F1
:10058000012B4FF0080303D0456104E0042302E08F
:10059000056100E00023FF2A01D8064601E000F1D2
:1005A00004064FEA840501D9A5F12005D6F800809C
:1005B00007FA05FC28EA0C0803FA05F548EA0508DD
:1005C000C6F800804D68ED005BD5344DAE6946F04D
:1005D0000106AE61AD6924F0030605F00105009542
:1005E0002F4D06EB050CDCF80850A607360F07FA6E
:1005F00006F825EA0805DFF8AC80404503D14FF046
:10060000000810E03DE0DFF8A080404502D14FF047
:10061000010808E0DFF89480404502D14FF002085D
:1006200001E04FF0030808FA06F848EA0508CCF89C
:1006300008804D68D9F80060ED024D4601D516439B
:1006400000E096432E604D68DAF80060AD02554632
:1006500001D5164300E096432E604D68DBF800603C
:10066000AD035D4601D5164300E096432E604D680C
:10067000DEF80060ED03754601D5164300E09643B1
:100680002E60641C0A6832FA04F57FF43FAFBDE8BF
:10069000F88F000008040140000011100010024013
:1006A0000000014000080140000C01400010014022
:1006B00001488068704700000800002002488168F7
:1006C000027811448160704708000020074810B587
:1006D000016841F010010160032000F067F80F206D
:1006E00000F006F800F024F8002010BD00200240C1
:1006F00070B50D4D04464FF47A712878B1FBF0F0D7
:100700000A490968B1FBF0F000F0CEFA48B9102CA4
:1007100007D200222146501E00F028F800206C600D
:1007200070BD012070BD00000800002014000020F2
:100730000C4808B5816941F001018161816901F0CE
:1007400001010091C16941F08051C161C06900F0AF
:10075000805000900448416821F0E06141F0007150
:10076000416008BD0010024000000140F0B40E4B93
:100770001B680C46C3F30223C3F10705042D00D9FF
:100780000425191D072901D2002300E0DB1E0126E4
:1007900006FA05F1491E214099409E40761E1640FA
:1007A0003143F0BC00F08EBD0CED00E0064900F0D6
:1007B000070208684FF6FF03184040EA0220034A88
:1007C00010430860704700000CED00E00000FA05DF
:1007D0002DE9F0470F46050061D0434E306800F028
:1007E0000700B84209D2306820F007003843306073
:1007F000306800F00700B84251D128683B4C8107AF
:1008000012D5400703D5606840F4E0606060287846
:10081000000703D5606840F4605060606068A968B4
:1008200020F0F000084360602878C00728D068688E
:10083000012810D02168022810D0890700292EDA5B
:10084000616821F0030101436160FFF731FF8046D9
:1008500041F288390DE021688903EFE78901EDE76E
:10086000FFF726FFA0EB0801494502D90320BDE8A8
:10087000F0876068696800F00C00B0EB810FEFD181
:10088000306800F00700B8420BD9306820F007004C
:1008900038433060306800F00700B84201D00120D2
:1008A000E5E72878400705D56068E96820F4E0604E
:1008B000084360602878000706D56068296920F43D
:1008C000605040EAC100606000F038F86168084A92
:1008D000C1F30311515CC84006490860064800682E
:1008E000FFF706FF0020C2E7002002400010024090
:1008F000B2150008140000200C000020044805492F
:1009000000684968044AC1F30221515CC84070473D
:100910001400002000100240C215000804480549D8
:1009200000684968044AC1F3C221515CC84070475D
:100930001400002000100240C21500080E4A516841
:100940000E4801F00C03042B11D0082B0FD10C48DA
:10095000C1F38343C903C05C0AD55168084AC1F397
:100960004041921E515C054A5043B0FBF1F0704784
:1009700004494843704700000010024000127A000A
:10098000A215000800093D002DE9F84F040070D0C1
:100990002078C04DC00749D06868C0F381000128A5
:1009A00007D06868C0F38100022809D16868C003D5
:1009B00006D52868800339D560680028E7D035E07F
:1009C0006068B0F5803F0BD010B1B0F5A02F11D00A
:1009D000286820F480302860286820F4802002E015
:1009E000286840F480302860606890B1FFF760FEAE
:1009F00006460AE0286840F480202860F0E700BF3F
:100A0000FFF756FE801B642873D828688003F7D54B
:100A10000CE0FFF74DFE064605E000BFFFF748FE7D
:100A2000801B6428F0D828688003F7D420789A4E79
:100A300080074FF001094FF0000839D5686810F0C1
:100A40000C0F07D06868C0F38100022809D16868DC
:100A5000C00306D42868800714D52069012808D16E
:100A600010E02069B0B1C6F80090FFF721FE0746FC
:100A700005E00AE1FFF71CFEC01B0228C4D8286865
:100A80008007F7D52868616920F0F80040EAC100C6
:100A900028600DE0C6F80080FFF70AFE074604E074
:100AA000FFF706FEC01B022823D828688007F7D46A
:100AB000207800072CD57948A169D9B1C0F80090F9
:100AC000FFF7F6FD074604E0FFF7F2FDC01B022822
:100AD0000FD8686A8007F7D571484FF4FA5100685B
:100AE000B0FBF1F0009000BF0098411E0091FAD2D7
:100AF0000EE080E0C0F80080FFF7DAFD074604E072
:100B0000FFF7D6FDC01B022875D8686A8007F7D4A6
:100B10002078400760D5E8690027C00008D4E8695C
:100B200040F08050E861E869012700F080500090B3
:100B30005C480168C90513D40168834641F480719B
:100B40000160FFF7B5FD824606E000BFFFF7B0FD8C
:100B5000A0EB0A0064284ED8DBF80000C005F5D5EC
:100B6000E06801280AD008B1052813D0286A20F0CF
:100B700001002862286A20F0040002E0286A40F0A0
:100B800001002862E06841F2883B98B1FFF790FDD0
:100B900082460BE0286A40F004002862EEE700BFBE
:100BA000FFF786FDA0EB0A0159455AD8286A80074D
:100BB000F6D50CE0FFF77CFD824605E0FFF778FDF7
:100BC000A0EB0A0159454CD8286A8007F6D41FB11A
:100BD000E86920F08050E861E06988B36968C1F392
:100BE0008101022944D00228C6F8608004D0FFF7B2
:100BF0005FFD044638E034E0FFF75AFD074604E0A5
:100C0000FFF756FDC01B02282BD828688001F7D4B7
:100C1000206AB0F5803F05D16868A16820F40030F3
:100C200008436860D4E908010843696821F4741135
:100C300008436860C6F86090FFF73AFD044606E096
:100C400025E000BFFFF734FD001B022809D8286803
:100C50008001F7D51BE000BFFFF72AFD001B02282B
:100C600002D90320BDE8F88F28688001F4D40EE093
:100C70000128F7D06868226A00F48031914204D1DB
:100C8000616A00F47010884201D00120EAE7002078
:100C9000E8E70000001002400000424280044242A7
:100CA000140000200070004010B5401EB0F1807F9D
:100CB00001D3012010BD4FF0E02460610F216017C7
:100CC00000F000FB0020A06107202061002010BD83
:100CD00070B5040004D094F84100002510B106E07E
:100CE000012070BD84F84050204600F023F82420F5
:100CF00084F841002068C16821F40051C160204699
:100D000000F0CAF92068016921F49041016120686E
:100D1000416921F02A0141612068C16841F4005114
:100D2000C1606564202084F8410084F84200656356
:100D3000002070BD30B585B0002400940194029469
:100D4000039400681449884224D11448816941F40D
:100D500080418161816901F480410491816941F0A0
:100D60000401816180690E4D00F0040004904FF48D
:100D700000700090022001900320039069462846ED
:100D8000FFF7B6FB2815CDE9000469462846029412
:100D9000FFF7AEFB05B030BD003801400010024047
:100DA000000801402DE9F84F044690F842009A46A9
:100DB00016460D46202802D00220BDE8F88FB5B1B6
:100DC000AEB100206064222184F842102063FFF756
:100DD0006FFCA6858146E685A0684FF480582027E1
:100DE000404501D1206920B12E46002529E001208F
:100DF000E3E7002625E04B46002220212046CDF8DF
:100E000000A000F0A5F918B184F842700320D4E7DF
:100E100026B1A06840451AD038B108E02068406883
:100E2000C0F3080025F8020B08E0206978B12068BB
:100E3000406800F07F0000BF06F8010BE08D401E07
:100E4000E085E08D0028D6D184F84270B5E72068AF
:100E50004068F1E72DE9F843044690F841009846D0
:100E600016460D46202802D00220BDE8F88385B141
:100E70007EB100206064212084F84100FFF718FC57
:100E8000A6848146E684A0682027B0F5805F02D062
:100E900003E00120E9E7206910B12E4600250EE0AD
:100EA00000260CE08021204600F052F9A8B9C6B116
:100EB00016F8010B21684860E08C401EE084E08C4D
:100EC0004B464FF00002CDF800800028EAD14FF0E9
:100ED0004001204600F03CF940B184F84170032005
:100EE000C3E735F8020BC0F30800E3E784F841706C
:100EF0000020BAE7FEE7000010B50D4C20680D4950
:100F00000840B0F1005F05D00BA000F0CBF94FF026
:100F1000FF3010BD0EA000F0C5F9606811494860AF
:100F20000860216881F308888047002010BD000018
:100F3000002000080000FE2F0D0A2052756E20745C
:100F40006F20617070206572726F722E0D0A000042
:100F50000D0A2052756E20746F206170702E0D0A7C
:100F600000000000000000200D4808B5816941F034
:100F700010018161816901F010010091816941F0E6
:100F800020018161816901F020010091816941F0B6
:100F900004018161806900F00400009008BD000038
:100FA000001002400C4810B50A4901604FF4E131CD
:100FB0004160002181600C22C160C0E9041281619E
:100FC000C161FFF785FE002803D0BDE81040FFF7A0
:100FD000F5B810BD003801401C000020FEE7FEE718
:100FE00070477047FFF76ABB30B58FB0282168465D
:100FF000FFF7AFF814210AA8FFF7ABF801210804A6
:10100000CDE900100024029402250491CDE9075097
:101010004FF4E01009906846FFF7B6FC08B172B6CD
:10102000FEE70F20CDE90A054FF48060CDE90C40C2
:1010300002210AA80E94FFF7CBFB002801D072B65C
:10104000FEE70FB030BD704701680C3151E8002F4A
:1010500022F4907241E80023002BF5D1016814318D
:1010600051E8002F22F0010241E80023002BF5D1C6
:10107000016B012909D101680C3151E8002F22F0E0
:10108000100241E80023002BF5D1202180F8421006
:10109000002101637047000070B5044600680169D3
:1010A000E26821F44051114301612169A0680843BD
:1010B000616908432168CA6841F20C639A4302439C
:1010C000CA6020684169A26921F4407111434161FD
:1010D0001E492068884202D1FFF720FC01E0FFF79B
:1010E0000DFC00EBC00101EB001260686421800080
:1010F000B2FBF0F3B3FBF1F36FF018067343B2FBEE
:10110000F0F5B2FBF0F605EB8305322303EB051592
:10111000B5FBF1F5B6FBF1F605F0F00505EB0615AC
:10112000B2FBF0F6B2FBF0F0B0FBF1F06FF018029A
:10113000504306EB800003EB0010B0FBF1F0216898
:1011400000F00F002844886070BD000000380140A6
:101150002DE9F843984617460D460446089E24E0BC
:10116000701C22D0FFF7A4FAA0EB0800B0421AD8F6
:10117000CEB12068C168490717D5802D15D0402D04
:1011800013D00168C94309070FD4016800254068DE
:1011900000902046FFF758FF0820606484F8405014
:1011A0000120BDE8F8830320FBE72068006835EAEA
:1011B000000004D00020B842D2D00020F1E7012086
:1011C000F9E7FEE710B539B10B46014601220848A0
:1011D000FFF7E8FD38B108E0054909680A6892069A
:1011E00003D549680170012010BD002010BD00002A
:1011F0001C00002001B50A23012269460148FFF7BF
:1012000029FE08BD1C0000202DE9F0470024A4B0F1
:10121000DFF88CA0432625464FF47A78E94600E0B3
:1012200016B14320FFF7E6FF4746414623A8FFF7E4
:10123000C9FF012807D19DF88C0001280CD0022895
:101240000DD0042811D06D1C402DE9DB06B100261D
:101250000125B846671D15E08024012002E04FF407
:10126000806402208DF80000F0E70620FFF7C2FF3F
:1012700024B00020BDE8F08709EB05004146FFF7E8
:10128000A1FF6D1CBD42F7DB224609F10301504668
:10129000FFF73CF8A2440620FFF7ACFF0025C3E7A8
:1012A000002000080FB4054B10B503A9044A0298AA
:1012B00000F028F810BC5DF814FB00005914000879
:1012C000180000200907090E002804DB00F1E020C7
:1012D00080F80014704700F00F0000F1E02080F863
:1012E000141D704702E008C8121F08C1002AFAD175
:1012F00070477047002001E001C1121F002AFBD196
:10130000704700002DE9FF4F89B09B460446002539
:1013100006E025280BD05A460B999047641C6D1C9B
:1013200020780028F5D10DB02846BDE8F08F0027C1
:10133000B8460122474900E0074314F8013F203B2B
:1013400002FA03F00842F7D120782E2819D114F8B8
:10135000010F47F004072A280ED06FF02F022078E3
:10136000A0F1300109290CD808EB880102EB4101FA
:1013700000EB0108641CF2E70A98641C50F8048B27
:101380000A9020780028CED0642808D0692806D09A
:1013900075281ED05A460B9990476D1C58E00A9943
:1013A0004FF00A0901C90A91002802DA40422D21B2
:1013B00002E0390504D52B218DF82010012103E02E
:1013C000F90704D02021F7E78A4608AE0DE0002196
:1013D000FAE70A994FF00A0901C90A91F7E7494665
:1013E000FEF7C2FE303106F8011D0028F7D1ADEB43
:1013F000060000F12009780701D44FF00108C84524
:1014000002DDA8EB090000E000208046002706E08E
:1014100008A85A46C05D0B9990476D1C7F1C574524
:10142000F6DB04E030205A460B9990476D1CB8F16A
:101430000001A8F10108F5DC05E016F8010B5A4699
:101440000B9990476D1CB9F10001A9F10109F4DC79
:10145000641C65E70928010013B54FF0FF33012232
:1014600069460248FFF7F6FC00981CBD1C000020EE
:1014700008B5FFF72BF9FFF7B7FDFFF775FDFFF78D
:1014800091FD19A0FFF70EFF22A0FFF70BFF2CA084
:10149000FFF708FF14A0FFF705FF05244FF47A7546
:1014A00069462B4601223148FFF77CFC9DF800007D
:1014B0000D280FD00A280DD0641EE4B221462CA0BE
:1014C000FFF7F0FE002CEBD16420FEF74DFFFFF795
:1014D00013FDFEE7FEF7FEFEFFF796FE0028DFD1C4
:1014E00027A0FFF7DFFEEFE72A2A2A2A2A2A2A2A3C
:1014F0002A2A2A2A2A2A2A2A2A2A2A2A2A2A2A2A4C
:101500002A2A2A2A2A2A2A2A2A2A2A2A2A2A0D0A78
:101510000000000020202020202020202020426FDA
:101520006F744C6F6164657242617369632020203F
:10153000202020202020202020200D0A0000000054
:10154000202020202020202020202020202020209B
:101550005631202020202020202020202020202044
:101560002020202020200D0A000000001C00002068
:10157000626F6F745F636F756E743A25640D0A0055
:10158000446F776E6C6F6164204F4B2C206A756DD1
:101590007020746F204170702E2E2E0D0A000000F6
:1015A000010202030405060708090A0B0C0D0E0FC1
:1015B00010100000000000000000010203040607F4
:1015C000080900000000010203040000EC150008F7
:1015D000000000201C000000E412000808160008AB
:1015E0001C0000206C040000F41200080000000041
:1015F00000000000010000001000000000000000DA
:0816000000127A000000000056
:04000005080000ED02
:00000001FF
