:020000040800F2
:10000000600C002001010008AB11000881100008FD
:10001000A9110008390200085B1500080000000063
:10002000000000000000000000000000A71200080F
:100030003B02000800000000AD1100087D1300081D
:100040001B0100081B0100081B0100081B01000820
:100050001B0100081B0100081B0100081B01000810
:100060001B0100081B0100081B0100081B01000800
:100070001B0100081B0100081B0100081B010008F0
:100080001B0100081B0100081B0100081B010008E0
:100090001B0100081B0100081B0100081B010008D0
:1000A0001B0100081B0100081B0100081B010008C0
:1000B0001B0100081B010008000000001B010008D4
:1000C0001B01000800000000000000001B010008E8
:1000D000000000001B0100081B01000800000000D8
:1000E0001B0100081B0100081B010008DFF80CD0F1
:1000F00000F090F800480047CD190008600C00207F
:100100000648804706480047FEE7FEE7FEE7FEE7B1
:10011000FEE7FEE7FEE7FEE7FEE7FEE7DF13000887
:10012000ED000008202A04DB203A21FA02F0002129
:10013000704721FA02F3D040C2F1200291400843F7
:1001400019467047D2B201E000F8012B491EFBD2DC
:1001500070470022F6E710B513460A4604461946D2
:10016000FFF7F0FF204610BD421C10F8011B0029CC
:10017000FBD1801A704710B5002200E0521C835C4E
:100180008C5CA34201D1002BF8D1D8B2E1B2401A65
:1001900010BD034611F8012B00F8012B002AF9D1FC
:1001A0001846704770B50F4D00B92868002412E05A
:1001B0000A4602E09E4203D0521C1378002BF9D16C
:1001C000DAB2224305D02BB124B1002100F8011B83
:1001D00004E00446401C0678002EE9D12860204641
:1001E00070BD00002C00002030B50B4601460020F9
:1001F0002022012409E021FA02F59D4205D303FAE9
:1002000002F5491B04FA02F52844151EA2F1010269
:10021000F1DC30BD064C074D06E0E06840F001031C
:1002200094E8070098471034AC42F6D3FFF762FF1A
:10023000EC1D00080C1E0008FEE770473EB50C469A
:10024000022833DB1DA16068FFF795FF00282DD041
:100250001CA16068FFF78FFF002827D10090019054
:100260000290194801F07AF9041E16DD17A001F07A
:1002700025FA1BA001F022FA1B491CA001F01EFA6E
:100280002146684600F0FEFE19A001F017FA694603
:1002900016A001F013FA19A006E0601C07D0A01CFC
:1002A00007D0E41C07D018A001F008FA3EBD1BA03F
:1002B000FAE71FA0F8E723A0F6E70000626F6F746B
:1002C0000000000061707000600400200D0A2055DD
:1002D0007064617465204F766572210D0A0000001C
:1002E000204E616D653A2000A000002025730000BB
:1002F0000D0A2053697A653A200000002042797483
:1003000065732E0D0A0000002052656365697665ED
:100310002046696C65642E0D0A0000000D0A204914
:100320006D61676520546F6F20426967210D0A0077
:100330000D0A20557064617465206661696C65649E
:10034000210D0A000D0A2041626F727465642062FB
:100350007920757365722E0D0A00000033B585B0E3
:1003600000240494059800F039F8054600F072F96D
:100370000648CDE9020504A90094684600F0CCF8CF
:1003800000F01EF907B0012030BD00000030000869
:1003900072B6FEE706490020C8610648016941F0CF
:1003A00004010161016941F04001016170470000F1
:1003B0008000002000200240064A0021D161064949
:1003C0000A6942F002020A614861086940F040008F
:1003D00008617047800000200020024001B50098AD
:1003E000810503D0012101EB902008BD800A08BDE2
:1003F000044B0022DA61044A136943F001031361DC
:100400000180704780000020002002401448002234
:10041000C168CB06134904D5CA6942F00202CA6119
:100420001022C3685B0705D5CB6943F00103CB619C
:1004300042F00402C369DB0707D0CB6943F0040331
:10044000CB61C16921F00101C161A2F5807101395F
:1004500001D0C2607047C16921F00101C1617047DC
:10046000002002408000002070B5054600F0E6F94B
:100470000646114C09E0681C07D025B100F0DEF9F2
:10048000801BA84201D9032070BDE068C007F2D1EB
:10049000E068800601D52020E060E068C00605D451
:1004A000E069C00702D1E068400703D5FFF7AEFF5F
:1004B000012070BD002070BD002002402DE9F047F2
:1004C00015460E4681464FF0000800F0C3F80024A0
:1004D000104F19E0601CA84202D23019028802E0D5
:1004E000305D40F47F4209EB04010023012000F05D
:1004F00071F828B100F064F84FF0FF30BDE8F087E4
:10050000F868C007FCD1A41CAC42E3D300F058F853
:100510004046F3E7002002402DE9F0470546264813
:100520000F460126017E01290FD001218146017667
:100530002868DFF888804CF25034022808D0A246A0
:100540002046FFF791FFA8B131E00220BDE8F08717
:100550002046FFF789FF08BB0120FFF71BFF20465D
:10056000FFF782FFD8F81010064621F00401C8F802
:1005700010101CE04FF0FF303860AC6811E02046EE
:10058000FFF71AFF5046FFF76FFFD8F8101006006C
:1005900021F00201C8F8101001D03C6007E004F51A
:1005A0008064D5E9020100EB8120A042E7D8002158
:1005B00089F818103046C9E780000020002002406A
:1005C0000348016941F0800101610020704700008B
:1005D000002002402DE9F05F07461C4888460024B1
:1005E000017E15461E46012909D00121814601766A
:1005F0004CF2503A5046FFF737FF18B122E0022084
:10060000BDE8F09F012F02D0022F00D00427D3466F
:10061000DFF83CA0220128463146FFF783FD81B276
:1006200008EB4400FFF7E4FE5846FFF71DFFDAF839
:10063000102022F00102CAF8102018B9641CE4B29C
:10064000BC42E7D3002289F81820D9E780000020B7
:1006500000200240064900200A69120607D5054A13
:100660004A60054A4A600969090600D501207047B9
:100670000020024023016745AB89EFCD2DE9F84FFB
:10068000DFF89C910024A9F1040B23460F2709F100
:10069000040AABF1040EBBE00125A5402A40AA42A2
:1006A00076D1DFF880C14E68A6EB0C0866452BD0EA
:1006B0000DDC032E34D005DC36B3012E19D0022E0A
:1006C0002FD11BE0112E16D0122E2AD119E0B8F529
:1006D000881F19D006DCB8F5803F15D0B8F5801F0B
:1006E0001FD111E0B8F5001F0ED0B8F5041F18D1C6
:1006F0000AE0CB6815E0CB681B1D12E0CB6808331D
:100700000FE0CB680C330CE08B682BB1012B4FF062
:10071000080303D0456104E0042302E0056100E022
:100720000023FF2A01D8064601E000F104064FEA43
:10073000840501D9A5F12005D6F8008007FA05FC4B
:1007400028EA0C0803FA05F548EA0508C6F800800F
:100750004D68ED005BD5344DAE6946F00106AE61E3
:10076000AD6924F0030605F0010500952F4D06EB59
:10077000050CDCF80850A607360F07FA06F825EA3C
:100780000805DFF8AC80404503D14FF0000810E0C9
:100790003DE0DFF8A080404502D14FF0010808E0BD
:1007A000DFF89480404502D14FF0020801E04FF09D
:1007B000030808FA06F848EA0508CCF808804D68EE
:1007C000D9F80060ED024D4601D5164300E096438E
:1007D0002E604D68DAF80060AD02554601D516432B
:1007E00000E096432E604D68DBF80060AD035D4687
:1007F00001D5164300E096432E604D68DEF8006098
:10080000ED03754601D5164300E096432E60641C47
:100810000A6832FA04F57FF43FAFBDE8F88F0000B4
:1008200008040140000011100010024000000140C7
:1008300000080140000C01400010014001488068A0
:1008400070470000080000200248816802781144C7
:100850008160704708000020074810B5016841F02A
:1008600010010160032000F067F80F2000F006F887
:1008700000F024F8002010BD0020024070B50D4D9E
:1008800004464FF47A712878B1FBF0F00A49096800
:10089000B1FBF0F000F0CEFA48B9102C07D20022DC
:1008A0002146501E00F028F800206C6070BD012029
:1008B00070BD000008000020140000200C4808B59E
:1008C000816941F001018161816901F001010091BB
:1008D000C16941F08051C161C06900F08050009051
:1008E0000448416821F0E06141F00071416008BDB9
:1008F0000010024000000140F0B40E4B1B680C4693
:10090000C3F30223C3F10705042D00D90425191DE3
:10091000072901D2002300E0DB1E012606FA05F1BB
:10092000491E214099409E40761E16403143F0BC3E
:1009300000F0D4BE0CED00E0064900F007020868A4
:100940004FF6FF03184040EA0220034A10430860B4
:10095000704700000CED00E00000FA052DE9F047BB
:100960000F46050061D0434E306800F00700B842E2
:1009700009D2306820F0070038433060306800F05A
:100980000700B84251D128683B4C810712D5400777
:1009900003D5606840F4E06060602878000703D504
:1009A000606840F4605060606068A96820F0F00002
:1009B000084360602878C00728D06868012810D0F4
:1009C0002168022810D0890700292EDA616821F0F9
:1009D000030101436160FFF731FF804641F288392E
:1009E0000DE021688903EFE78901EDE7FFF726FFB6
:1009F000A0EB0801494502D90320BDE8F0876068F3
:100A0000696800F00C00B0EB810FEFD1306800F0A6
:100A10000700B8420BD9306820F007003843306037
:100A2000306800F00700B84201D00120E5E72878DF
:100A3000400705D56068E96820F4E060084360601D
:100A40002878000706D56068296920F4605040EADC
:100A5000C100606000F038F86168084AC1F3031112
:100A6000515CC8400649086006480068FFF706FF69
:100A70000020C2E70020024000100240861D00084E
:100A8000140000200C000020044805490068496853
:100A9000044AC1F30221515CC84070471400002091
:100AA00000100240961D0008044805490068496886
:100AB000044AC1F3C221515CC840704714000020B1
:100AC00000100240961D00080E4A51680E4801F0C1
:100AD0000C03042B11D0082B0FD10C48C1F3834316
:100AE000C903C05C0AD55168084AC1F34041921E4F
:100AF000515C054A5043B0FBF1F07047044948434C
:100B0000704700000010024000127A00761D0008B5
:100B100000093D002DE9F84F040070D02078C04D49
:100B2000C00749D06868C0F38100012807D0686811
:100B3000C0F38100022809D16868C00306D528687F
:100B4000800339D560680028E7D035E06068B0F5EB
:100B5000803F0BD010B1B0F5A02F11D0286820F441
:100B600080302860286820F4802002E0286840F463
:100B700080302860606890B1FFF760FE06460AE0AA
:100B8000286840F480202860F0E700BFFFF756FE99
:100B9000801B642873D828688003F7D50CE0FFF722
:100BA0004DFE064605E000BFFFF748FE801B6428A7
:100BB000F0D828688003F7D420789A4E80074FF049
:100BC00001094FF0000839D5686810F00C0F07D004
:100BD0006868C0F38100022809D16868C00306D4A0
:100BE0002868800714D52069012808D110E0206901
:100BF000B0B1C6F80090FFF721FE074605E00AE114
:100C0000FFF71CFEC01B0228C4D828688007F7D550
:100C10002868616920F0F80040EAC10028600DE012
:100C2000C6F80080FFF70AFE074604E0FFF706FE5D
:100C3000C01B022823D828688007F7D42078000733
:100C40002CD57948A169D9B1C0F80090FFF7F6FD1D
:100C5000074604E0FFF7F2FDC01B02280FD8686AC0
:100C60008007F7D571484FF4FA510068B0FBF1F0F6
:100C7000009000BF0098411E0091FAD20EE080E083
:100C8000C0F80080FFF7DAFD074604E0FFF7D6FD65
:100C9000C01B022875D8686A8007F7D420784007FF
:100CA00060D5E8690027C00008D4E86940F08050AA
:100CB000E861E869012700F0805000905C48016815
:100CC000C90513D40168834641F480710160FFF7C0
:100CD000B5FD824606E000BFFFF7B0FDA0EB0A00BD
:100CE00064284ED8DBF80000C005F5D5E06801287F
:100CF0000AD008B1052813D0286A20F00100286224
:100D0000286A20F0040002E0286A40F0010028620E
:100D1000E06841F2883B98B1FFF790FD82460BE016
:100D2000286A40F004002862EEE700BFFFF786FD66
:100D3000A0EB0A0159455AD8286A8007F6D50CE07D
:100D4000FFF77CFD824605E0FFF778FDA0EB0A0186
:100D500059454CD8286A8007F6D41FB1E86920F0BD
:100D60008050E861E06988B36968C1F381010229B4
:100D700044D00228C6F8608004D0FFF75FFD044627
:100D800038E034E0FFF75AFD074604E0FFF756FD70
:100D9000C01B02282BD828688001F7D4206AB0F540
:100DA000803F05D16868A16820F40030084368607E
:100DB000D4E908010843696821F4741108436860A4
:100DC000C6F86090FFF73AFD044606E025E000BF54
:100DD000FFF734FD001B022809D828688001F7D5E9
:100DE0001BE000BFFFF72AFD001B022802D90320E9
:100DF000BDE8F88F28688001F4D40EE00128F7D010
:100E00006868226A00F48031914204D1616A00F47A
:100E10007010884201D00120EAE70020E8E70000D6
:100E200000100240000042428004424214000020B0
:100E30000070004010B5401EB0F1807F01D301204A
:100E400010BD4FF0E02460610F21601700F046FCF8
:100E50000020A06107202061002010BD70B50400B3
:100E600004D094F84100002510B106E0012070BDC7
:100E700084F84050204600F023F8242084F84100F4
:100E80002068C16821F40051C160204600F0D0FA0A
:100E90002068016921F4904101612068416921F0D5
:100EA0002A0141612068C16841F40051C160656454
:100EB000202084F8410084F842006563002070BD62
:100EC00030B585B000240094019402940394006826
:100ED0001449884224D11448816941F480418161D8
:100EE000816901F480410491816941F004018161CB
:100EF00080690E4D00F0040004904FF400700090E3
:100F0000022001900320039069462846FFF7B6FBB4
:100F10002815CDE90004694628460294FFF7AEFB88
:100F200005B030BD0038014000100240000801400B
:100F30002DE9F84F044690F842009A4616460D46B1
:100F4000202802D00220BDE8F88FB5B1AEB1002054
:100F50006064222184F842102063FFF76FFCA685AD
:100F60008146E685A0684FF480582027404501D18E
:100F7000206920B12E46002529E00120E3E7002664
:100F800025E04B46002220212046CDF800A000F0AD
:100F9000ABFA18B184F842700320D4E726B1A068F8
:100FA00040451AD038B108E020684068C0F3080016
:100FB00025F8020B08E0206978B12068406800F04D
:100FC0007F0000BF06F8010BE08D401EE085E08D3C
:100FD0000028D6D184F84270B5E720684068F1E770
:100FE0002DE9F843044690F84100984616460D4610
:100FF000202802D00220BDE8F88385B17EB1002010
:101000006064212084F84100FFF718FCA684814623
:10101000E684A0682027B0F5805F02D003E00120BD
:10102000E9E7206910B12E4600250EE000260CE00D
:101030008021204600F058FAA8B9C6B116F8010B75
:1010400021684860E08C401EE084E08C4B464FF005
:101050000002CDF800800028EAD14FF04001204680
:1010600000F042FA40B184F841700320C3E735F83C
:10107000020BC0F30800E3E784F841700020BAE7F0
:10108000FEE70000F0B500220D4B154614460A2776
:10109000B1FBF3F630368654B1FBF3F603FB1611C1
:1010A000B3FBF7F3521C861816F8016C302E00D1F2
:1010B00025B16D1C641C0A2CEAD3F0BD0022F9E7AF
:1010C00000CA9A3B10B50D4C20680D490840B0F19C
:1010D000005F05D00BA000F0F1FA4FF0FF3010BD1B
:1010E0000EA000F0EBFA60681149486008602168C2
:1010F00081F308888047002010BD00000030000800
:101100000000FE2F0D0A2052756E20746F20617052
:1011100070206572726F722E0D0A00000D0A205247
:10112000756E20746F206170702E0D0A0000000033
:10113000000000200D4808B5816941F0100181616F
:10114000816901F010010091816941F02001816104
:10115000816901F020010091816941F00401816100
:10116000806900F00400009008BD000000100240FB
:101170000C4810B50A4901604FF4E131416000218B
:1011800081600C22C160C0E904128161C161FFF776
:1011900065FE002803D0BDE81040FFF7F9B810BD88
:1011A0000038014034000020FEE7FEE770470000F1
:1011B0000B4610B5014601220348FFF7B9FE00288F
:1011C00001D04FF0FF3010BD340000202DE9F84F62
:1011D000884600210646C8F8001092461146684627
:1011E000FFF7E6FF4FF0FF3978BB9DF80000A2281B
:1011F0001DD010DC182832D006DC01281DD00228B2
:1012000024D0042849D14CE0412834D0612832D080
:10121000A12842D109E0A0F1A30107293DD2DFE8CE
:1012200001F0080A0C0E11151800082413E0102410
:1012300011E020240FE040240DE080240BE04FF467
:10124000807408E04FF4007405E026E04FF48064F9
:1012500001E04FF4006401253070671D15E0514630
:101260006846FFF7A5FFC0B99DF80000182814D103
:10127000C8F8009015E00120BDE8F88F70195146BC
:10128000FFF796FF48B96D1CADB2BD42F6D3B178F9
:10129000707881F0FF01884201D04846ECE7C8F839
:1012A00000400020E8E7704701B50A2301226946A3
:1012B0000248FFF795FE002008BD00003400002022
:1012C00070B5002204781346302C04D14478782C71
:1012D0000AD0582C08D06FF02F05845C74B36B2CA7
:1012E0002ED04B2C2CD030E082780AB30224025D41
:1012F0005AB1A2F14105052D0AD9A2F16106052EC8
:1013000006D91135092D07D913E001200B6011E032
:10131000A2F13006092E01D8303A04E0052D01D89B
:10132000373A00E0573A641C02EB03130B2CDED370
:1013300002E000200B2C00D3002070BD0B6002E007
:101340001AB1980207E0012015E06D2C01D04D2C58
:1013500003D112B118050860F5E7A4F13006092E93
:1013600008D803EB830305EB4303521C23440B2AE9
:10137000B3D3E1E700200B2ADED270BDFFF764BAD9
:1013800030B58FB028216846FEF7E3FE14210AA885
:10139000FEF7DFFE01210804CDE9001000240294CD
:1013A00002250491CDE907504FF4E01009906846FA
:1013B000FFF7B0FB08B172B6FEE70F20CDE90A05D2
:1013C0004FF48060CDE90C4002210AA80E94FFF78B
:1013D000C5FA002801D072B6FEE70FB030BD7047E5
:1013E00001680C3151E8002F22F4907241E800238B
:1013F000002BF5D10168143151E8002F22F00102D1
:1014000041E80023002BF5D1016B012909D10168C6
:101410000C3151E8002F22F0100241E80023002B8C
:10142000F5D1202180F842100021016370470000AF
:1014300070B5044600680169E26821F44051114327
:1014400001612169A0680843616908432168CA688D
:1014500041F20C639A430243CA6020684169A26961
:1014600021F44071114341611E492068884202D134
:10147000FFF71AFB01E0FFF707FB00EBC00101EBF0
:101480000012606864218000B2FBF0F3B3FBF1F35B
:101490006FF018067343B2FBF0F5B2FBF0F605EB04
:1014A0008305322303EB0515B5FBF1F5B6FBF1F629
:1014B00005F0F00505EB0615B2FBF0F6B2FBF0F017
:1014C000B0FBF1F06FF01802504306EB800003EB25
:1014D0000010B0FBF1F0216800F00F002844886094
:1014E00070BD0000003801402DE9F84398461746CA
:1014F0000D460446089E24E0701C22D0FFF79EF99A
:10150000A0EB0800B0421AD8CEB12068C1684907E4
:1015100017D5802D15D0402D13D00168C943090778
:101520000FD401680025406800902046FFF758FF5F
:101530000820606484F840500120BDE8F88303204F
:10154000FBE72068006835EA000004D00020B842BC
:10155000D2D00020F1E70120F9E7FEE72DE9F04FB6
:10156000ADF2244DDFF84C914FF0000A5049CDF810
:1015700008A44320C9F80010FFF796FED3465C4646
:101580005E464FF47A774FF0FF3800253A460DF269
:101590000C416846FFF71AFE88B101287BD0002E67
:1015A00000DD641C052C7FDD1820FFF77DFE182070
:1015B000FFF77AFE00200DF2244DBDE8F08FDDF834
:1015C0000C240024424507D042B19DF80100E9B245
:1015D00088420AD0152068E00620E9E70620FFF7D8
:1015E00063FEBBF1000FD0D052E065B14E460DF165
:1015F0000301D9F80000FEF761FF306800F5806054
:101600003060062031E09DF8030098B300212A4E97
:101610000DF1030002E07254401C491C02780AB12B
:10162000FF29F8DD06F801A0002153460DF582667A
:10163000401C02E07254401C491C0278202A01D050
:101640001029F7DB73540DF581613046FFF738FE42
:10165000DDF80804B0F5004F0FDA0021FEF77EFE3A
:1016600058B10620FFF720FE4320FFF71DFE01269C
:101670006D1C8BE709E00EE016E01820FFF714FE62
:101680001820FFF711FE404695E70620FFF70CFEF5
:10169000DDF808048FE71820FFF706FE1820FFF793
:1016A00003FE6FF0020086E74320FFF7FDFD6DE7C4
:1016B0000030000818000020A00000200FB4054BE7
:1016C00010B503A9044A029800F028F810BC5DF890
:1016D00014FB00005D190008300000200907090E06
:1016E000002804DB00F1E02080F80014704700F0CF
:1016F0000F0000F1E02080F8141D704702E008C8D8
:10170000121F08C1002AFAD170477047002001E07B
:1017100001C1121F002AFBD1704700002DE9FF4FC5
:101720008BB09A460F460546002606E025280BD0CA
:1017300052460D9990476D1C761C28780028F5D1EB
:101740000FB03046BDE8F08F0024A046012260496A
:1017500000E0044315F8013F203B02FA03F0084281
:10176000F7D128782E2817D115F8010F44F004047A
:101770002A280ED06FF02F022878A0F13001092915
:101780000AD808EB880102EB410100EB01086D1C4F
:10179000F2E757F8048B6D1C287869283ED006DCE8
:1017A0000028CDD063280BD0642804D136E07328FC
:1017B00010D075284BD052460D999047761C85E085
:1017C00017F8040B8DF8000000208DF80100E946A1
:1017D000012003E057F8049B4FF0FF3061074FF002
:1017E000000401D40AE0641C44450DDA8442FADBAB
:1017F00019F804100029F6D106E0641C8442FCDBD1
:1018000019F804100029F8D1264404E019F8010B56
:1018100052460D999047641EF8D257E001CF4FF021
:101820000A0B002802DA40422D2102E0210504D5EE
:101830002B218DF82410012103E0E10705D02021A0
:10184000F7E70DF1200908910CE00021F9E701CF3D
:101850004FF00A0BF9E75946FEF7C6FC01F13002DA
:1018600009F8012D0028F6D1ADEB090000F1200B9D
:10187000600701D44FF00108D84502DDA8EB0B004A
:1018800000E000208046002406E009A85246005DE2
:101890000D999047641C761C08988442F5DB04E09F
:1018A000302052460D999047761CB8F10001A8F1FE
:1018B0000108F5DC05E019F8010B52460D99904737
:1018C000761CBBF10001ABF1010BF4DC6D1C34E7BD
:1018D00009280100044909680A68D2439206FBD42A
:1018E00049680170002070473400002001B50A23C8
:1018F000012269460148FFF773FB08BD3400002050
:1019000010B5044602E0641CFFF7F0FF20780028C1
:10191000F9D110BD70B509A0FFF7D0FE0B4D002422
:1019200004EB440005EB80018A6855F8201008A0FC
:10193000FFF7C4FE641C022CF2D370BD72696768A5
:101940007420636D643A0D0A00000000A01D0008B9
:1019500020202573203A2025730D0A0013B54FF07F
:10196000FF33012269460248FFF73AFB00981CBD8D
:101970003400002070B50646FEF7F6FB0025124C39
:1019800003E00820FFF7B2FF6D1CE0688542F8DB3A
:10199000002503E02020FFF7A9FF6D1CA068854209
:1019A000F8DB002503E00820FFF7A0FF6D1CA0680E
:1019B0008542F8DB3046FFF7A3FF3046FEF7D4FB45
:1019C000E060A06070BD00001C00002008B5FEF7BC
:1019D00043FFFFF7D5FCFFF7ADFBFFF7C9FB1AA0EC
:1019E000FFF76CFE19A0FFF769FE23A0FFF766FE64
:1019F0002CA0FFF763FE15A0FFF760FE00208DF816
:101A0000000005244FF47A7569462B4601223048C0
:101A1000FFF78EFA9DF800000D2810D00A280ED08E
:101A2000641EE4B221462BA0FFF748FE002CEBD148
:101A3000FFF748FB401CE7D100F05CF8FEE729A067
:101A4000FFF73CFEF8E700000D0A00002A2A2A2AC8
:101A50002A2A2A2A2A2A2A2A2A2A2A2A2A2A2A2AE6
:101A60002A2A2A2A2A2A2A2A2A2A2A2A2A2A2A2AD6
:101A70002A2A0D0A000000002020202020202020FB
:101A80002020426F6F744C6F6164657242617369AC
:101A900063202020202020202020202020200D0A2C
:101AA00000000000202020202020202020202020B6
:101AB00020202020563320202020202020202020DD
:101AC000202020202020202020200D0A00000000BF
:101AD00034000020626F6F745F636F756E743A2517
:101AE000640D0A00726563656976655C725C6E0DF3
:101AF0000A00000086B075A0FFF702FF754F764D13
:101B00004FF0FF394FF0000807F5207603A8FFF7E4
:101B1000E1FE0028FAD19DF80C201B2A0DD00D2AD9
:101B200058D00A2A56D0082A7ED0AC683F2CEDDA6D
:101B3000E968A14279DA2046ADE001A8FFF7CAFEC4
:101B40000028E3D16846FFF7C5FE0028DED19DF8E6
:101B500004005B28DAD19DF8000041280FD042280C
:101B600018D043282CD04428D0D1E8680028CDDDF7
:101B70000820FFF7BBFEE868401EE860C6E728685B
:101B80000028C3DD6968421E914201DA491C696080
:101B9000401A06E0686800280ADD401E686029686F
:101BA000081A07EB80114D484039FEF7F2FA03E0BE
:101BB000C5F8049086F800804848FFF7DBFEA5E7EB
:101BC000D5E902108842A1DA305CFFF78FFEE868A1
:101BD000401CD2E742A0FFF793FEA868002806F851
:101BE00000801CDD29680A2905DA07EB8110491CF1
:101BF00029603A490CE0012407EB8411A1F140006F
:101C0000FEF7C7FA641C0A2CF6DB3449A1F1400048
:101C1000FEF7BFFA3148C5F8049000F063F8C5F844
:101C20000C80C5F8088001E006E038E086F8008006
:101C300026A0FFF765FE69E7EC68002C9EDDAB6827
:101C4000601E591E03E0321852783254401C8842FC
:101C5000F9DB5B1E641EC5E9023406F80380082028
:101C6000FFF744FEE8683044FFF74AFE2020FFF704
:101C70003DFE1A48FEF778FAE968441A641C02E04F
:101C80000820FFF733FE641E99D3F9E7331813F8E1
:101C9000013C3354401E8842F8DC725400E0325557
:101CA000491C641CC5E90241701806F80480401EF6
:101CB000FFF726FE0948FEF757FAE968441A02E0E2
:101CC0000820FFF713FE641EB5D3F9E74053544DC7
:101CD00033323A00A00100201C0000202004002024
:101CE0000D0A000070B588B0054620216846FEF751
:101CF00030FA20216846FEF72CFA002416A1284667
:101D0000FEF750FA6D4606E045F8240012A10020C7
:101D1000641CFEF747FA08B1082CF5DB002C10D044
:101D20000E4E002505EB450056F820100098FEF7F2
:101D300022FA40B16D1C022DF4D309A00099FFF7DF
:101D4000BDFC08B070BD05EB450006EB80006946A0
:101D5000426820469047F4E720000000A01D0008DC
:101D6000756E6B6E6F7720636D643A2025730D0A74
:101D700000000000010202030405060708090A0B1F
:101D80000C0D0E0F101000000000000000000102FA
:101D90000304060708090000000001020304000014
:101DA000E41D000815190008B81D0008DC1D000816
:101DB0003D020008C81D000873686F7720616C6CD5
:101DC00020636D64000000006275726E20636F64B2
:101DD0006520746F20666C61736800006275726EB6
:101DE0000000000068656C70000000000C1E000818
:101DF0000000002034000000FC160008401E00080F
:101E0000340000202C0C00000C170008000000001B
:101E100000000000010000001000000000000000B1
:101E200000127A000030000800000000FFFFFFFFF2
:101E300000000000000000000000000000000000A2
:04000005080000ED02
:00000001FF
